{
  "_format": "hh-sol-artifact-1",
  "contractName": "VendingMachineV2",
  "sourceName": "contracts/VendingMachineV2.sol",
  "abi": [
    {
      "inputs": [],
      "name": "InvalidInitialization",
      "type": "error"
    },
    {
      "inputs": [],
      "name": "NotInitializing",
      "type": "error"
    },
    {
      "anonymous": false,
      "inputs": [
        {
          "indexed": false,
          "internalType": "uint64",
          "name": "version",
          "type": "uint64"
        }
      ],
      "name": "Initialized",
      "type": "event"
    },
    {
      "inputs": [
        {
          "internalType": "uint256",
          "name": "_numSodas",
          "type": "uint256"
        }
      ],
      "name": "intialize",
      "outputs": [],
      "stateMutability": "nonpayable",
      "type": "function"
    },
    {
      "inputs": [],
      "name": "numSodas",
      "outputs": [
        {
          "internalType": "uint256",
          "name": "",
          "type": "uint256"
        }
      ],
      "stateMutability": "view",
      "type": "function"
    },
    {
      "inputs": [],
      "name": "owner",
      "outputs": [
        {
          "internalType": "address",
          "name": "",
          "type": "address"
        }
      ],
      "stateMutability": "view",
      "type": "function"
    },
    {
      "inputs": [],
      "name": "purchaseSoda",
      "outputs": [],
      "stateMutability": "payable",
      "type": "function"
    },
    {
      "inputs": [
        {
          "internalType": "address",
          "name": "_owner",
          "type": "address"
        }
      ],
      "name": "setNewOwner",
      "outputs": [],
      "stateMutability": "nonpayable",
      "type": "function"
    },
    {
      "inputs": [],
      "name": "withdrawProfits",
      "outputs": [],
      "stateMutability": "nonpayable",
      "type": "function"
    }
  ],
  "bytecode": "0x608060405234801561001057600080fd5b50610c18806100206000396000f3fe6080604052600436106100555760003560e01c806339913e091461005a57806363b18329146100715780637454ab6d1461009c5780638da5cb5b146100a6578063bcdd0385146100d1578063f5a1f5b4146100fa575b600080fd5b34801561006657600080fd5b5061006f610123565b005b34801561007d57600080fd5b506100866102c7565b60405161009391906106cf565b60405180910390f35b6100a46102cd565b005b3480156100b257600080fd5b506100bb6103c6565b6040516100c8919061072b565b60405180910390f35b3480156100dd57600080fd5b506100f860048036038101906100f39190610777565b6103ec565b005b34801561010657600080fd5b50610121600480360381019061011c91906107d0565b6105ba565b005b600160009054906101000a900473ffffffffffffffffffffffffffffffffffffffff1673ffffffffffffffffffffffffffffffffffffffff163373ffffffffffffffffffffffffffffffffffffffff16146101b3576040517f08c379a00000000000000000000000000000000000000000000000000000000081526004016101aa90610880565b60405180910390fd5b600047116101f6576040517f08c379a00000000000000000000000000000000000000000000000000000000081526004016101ed90610912565b60405180910390fd5b6000600160009054906101000a900473ffffffffffffffffffffffffffffffffffffffff1673ffffffffffffffffffffffffffffffffffffffff164760405161023e90610963565b60006040518083038185875af1925050503d806000811461027b576040519150601f19603f3d011682016040523d82523d6000602084013e610280565b606091505b50509050806102c4576040517f08c379a00000000000000000000000000000000000000000000000000000000081526004016102bb906109c4565b60405180910390fd5b50565b60005481565b6000805411610311576040517f08c379a000000000000000000000000000000000000000000000000000000000815260040161030890610a30565b60405180910390fd5b6103e8341015610356576040517f08c379a000000000000000000000000000000000000000000000000000000000815260040161034d90610ac2565b60405180910390fd5b60008081548092919061036890610b11565b91905055506001600260003373ffffffffffffffffffffffffffffffffffffffff1673ffffffffffffffffffffffffffffffffffffffff16815260200190815260200160002060008282546103bd9190610b3a565b92505081905550565b600160009054906101000a900473ffffffffffffffffffffffffffffffffffffffff1681565b60006103f661068e565b905060008160000160089054906101000a900460ff1615905060008260000160009054906101000a900467ffffffffffffffff1690506000808267ffffffffffffffff161480156104445750825b9050600060018367ffffffffffffffff16148015610479575060003073ffffffffffffffffffffffffffffffffffffffff163b145b905081158015610487575080155b156104be576040517ff92ee8a900000000000000000000000000000000000000000000000000000000815260040160405180910390fd5b60018560000160006101000a81548167ffffffffffffffff021916908367ffffffffffffffff160217905550831561050e5760018560000160086101000a81548160ff0219169083151502179055505b8560008190555033600160006101000a81548173ffffffffffffffffffffffffffffffffffffffff021916908373ffffffffffffffffffffffffffffffffffffffff16021790555083156105b25760008560000160086101000a81548160ff0219169083151502179055507fc7f505b2f371ae2175ee4913f4499e1f2633a7b5936321eed1cdaeb6115181d260016040516105a99190610bc7565b60405180910390a15b505050505050565b600160009054906101000a900473ffffffffffffffffffffffffffffffffffffffff1673ffffffffffffffffffffffffffffffffffffffff163373ffffffffffffffffffffffffffffffffffffffff161461064a576040517f08c379a000000000000000000000000000000000000000000000000000000000815260040161064190610880565b60405180910390fd5b80600160006101000a81548173ffffffffffffffffffffffffffffffffffffffff021916908373ffffffffffffffffffffffffffffffffffffffff16021790555050565b60007ff0c57e16840df040f15088dc2f81fe391c3923bec73e23a9662efc9c229c6a00905090565b6000819050919050565b6106c9816106b6565b82525050565b60006020820190506106e460008301846106c0565b92915050565b600073ffffffffffffffffffffffffffffffffffffffff82169050919050565b6000610715826106ea565b9050919050565b6107258161070a565b82525050565b6000602082019050610740600083018461071c565b92915050565b600080fd5b610754816106b6565b811461075f57600080fd5b50565b6000813590506107718161074b565b92915050565b60006020828403121561078d5761078c610746565b5b600061079b84828501610762565b91505092915050565b6107ad8161070a565b81146107b857600080fd5b50565b6000813590506107ca816107a4565b92915050565b6000602082840312156107e6576107e5610746565b5b60006107f4848285016107bb565b91505092915050565b600082825260208201905092915050565b7f4f6e6c79206f776e65722063616e2063616c6c20746869732066756e6374696f60008201527f6e21000000000000000000000000000000000000000000000000000000000000602082015250565b600061086a6022836107fd565b91506108758261080e565b604082019050919050565b600060208201905081810360008301526108998161085d565b9050919050565b7f50726f66697473206d7573742062652067726561746572207468616e2030207460008201527f6f20776974686472617721000000000000000000000000000000000000000000602082015250565b60006108fc602b836107fd565b9150610907826108a0565b604082019050919050565b6000602082019050818103600083015261092b816108ef565b9050919050565b600081905092915050565b50565b600061094d600083610932565b91506109588261093d565b600082019050919050565b600061096e82610940565b9150819050919050565b7f4661696c656420746f207769746864726177207468652070726f666974732100600082015250565b60006109ae601f836107fd565b91506109b982610978565b602082019050919050565b600060208201905081810360008301526109dd816109a1565b9050919050565b7f5468652076656e64696e67206d616368696e6520697320656d70747921000000600082015250565b6000610a1a601d836107fd565b9150610a25826109e4565b602082019050919050565b60006020820190508181036000830152610a4981610a0d565b9050919050565b7f596f75206d7573742070617920313030302077656920666f72206120736f646160008201527f2100000000000000000000000000000000000000000000000000000000000000602082015250565b6000610aac6021836107fd565b9150610ab782610a50565b604082019050919050565b60006020820190508181036000830152610adb81610a9f565b9050919050565b7f4e487b7100000000000000000000000000000000000000000000000000000000600052601160045260246000fd5b6000610b1c826106b6565b915060008203610b2f57610b2e610ae2565b5b600182039050919050565b6000610b45826106b6565b9150610b50836106b6565b9250828201905080821115610b6857610b67610ae2565b5b92915050565b6000819050919050565b600067ffffffffffffffff82169050919050565b6000819050919050565b6000610bb1610bac610ba784610b6e565b610b8c565b610b78565b9050919050565b610bc181610b96565b82525050565b6000602082019050610bdc6000830184610bb8565b9291505056fea2646970667358221220b139727e59e6904229451d76d900247918818585c1ad22b1f131b3457fc45d1964736f6c63430008180033",
  "linkReferences": {},
  "deployedLinkReferences": {}
}